:040000008A11112828
:10000800FE00030EF5000408F6000A08F700831244
:1000180003137F08F8008A1101298A1139298316E8
:1000280003139B0181011F3085008312031385018F
:1000380083160313860183120313860183160313A1
:10004800811281110114811401153C3083120313AC
:1000580081008B168B17F401F128F1288312031302
:1000680086100611051C39283A28F128F4010314D2
:10007800F40DF128F12883120313061844284528A3
:100088004B2806141430F2000030F30051280610F3
:100098001430F2000030F300512886140611051CB4
:1000A800562857285C280430F9007908F4005C28A1
:1000B80085185F28602865280530F9007908F4005C
:1000C8006528851968286928F12886100611061000
:1000D8000230F9007908F400F128F128831203139B
:1000E800051C772878287D280330F9007908F40062
:1000F8007D2871087004031D82288328F128583050
:10010800F0000230F1000330F9007908F400F1281A
:10011800F1288312031306189228932899280614A5
:100128001430F2000030F3009F2806101430F2005B
:100138000030F3009F28861006150518A428A52866
:10014800A9280519A828A928BA288610061171080F
:100158007004031DB028B128BA282830F0000030F8
:10016800F100F4010314F40DBA28BA288518BD2843
:10017800BE28C3280530F9007908F400C328051AF9
:10018800C628C728F128861006110610F401F128A0
:10019800F128831203138610061171087004031DD9
:1001A800D628D728F128C830F0000030F100F40133
:1001B8000314F40DF128F128831203138610061195
:1001C8000614051CE828E928F128F4010314F40DA5
:1001D800F128F128F401F128F12874088400063088
:1001E80004020318EE2801308A000310040D2D3E86
:1001F8008200F128F1288A1111280B1D04290529EC
:1002080022290B113C3081007308720403190D294F
:100218000E2914290130F2020030031CF303F30203
:1002280071087004031919291A2922290130F002CA
:100238000030031CF103F102222922297808FF006B
:1002480077088A0076088400750E8300FE0E7E0EFD
:1002580009008A1132288A113F288A1172288A11C6
:100268008D288A11CD288A11E028F001F101F201C8
:0A027800F301F40183018A11132839
:02400E00613F10
:00000001FF
